{
  "_format": "hh-sol-artifact-1",
  "contractName": "ImageStorage",
  "sourceName": "contracts/ImageStorge.sol",
  "abi": [
    {
      "inputs": [
        {
          "internalType": "string",
          "name": "",
          "type": "string"
        }
      ],
      "name": "imageRecords",
      "outputs": [
        {
          "internalType": "string",
          "name": "imageHash",
          "type": "string"
        },
        {
          "internalType": "address",
          "name": "signer",
          "type": "address"
        },
        {
          "internalType": "string",
          "name": "signature",
          "type": "string"
        }
      ],
      "stateMutability": "view",
      "type": "function"
    },
    {
      "inputs": [
        {
          "internalType": "string",
          "name": "imageHash",
          "type": "string"
        },
        {
          "internalType": "string",
          "name": "signature",
          "type": "string"
        }
      ],
      "name": "storeImage",
      "outputs": [],
      "stateMutability": "nonpayable",
      "type": "function"
    },
    {
      "inputs": [
        {
          "internalType": "string",
          "name": "imageHash",
          "type": "string"
        }
      ],
      "name": "verifyImage",
      "outputs": [
        {
          "internalType": "address",
          "name": "signer",
          "type": "address"
        },
        {
          "internalType": "string",
          "name": "signature",
          "type": "string"
        }
      ],
      "stateMutability": "view",
      "type": "function"
    }
  ],
  "bytecode": "0x6080604052348015600f57600080fd5b50610b7d8061001f6000396000f3fe608060405234801561001057600080fd5b50600436106100415760003560e01c80632321463c146100465780636f8b557114610077578063f8285265146100a9575b600080fd5b610060600480360381019061005b9190610616565b6100c5565b60405161006e92919061071f565b60405180910390f35b610091600480360381019061008c9190610616565b610283565b6040516100a09392919061074f565b60405180910390f35b6100c360048036038101906100be9190610794565b6103f3565b005b60006060600080846040516100da9190610848565b90815260200160405180910390206040518060600160405290816000820180546101039061088e565b80601f016020809104026020016040519081016040528092919081815260200182805461012f9061088e565b801561017c5780601f106101515761010080835404028352916020019161017c565b820191906000526020600020905b81548152906001019060200180831161015f57829003601f168201915b505050505081526020016001820160009054906101000a900473ffffffffffffffffffffffffffffffffffffffff1673ffffffffffffffffffffffffffffffffffffffff1673ffffffffffffffffffffffffffffffffffffffff1681526020016002820180546101eb9061088e565b80601f01602080910402602001604051908101604052809291908181526020018280546102179061088e565b80156102645780601f1061023957610100808354040283529160200191610264565b820191906000526020600020905b81548152906001019060200180831161024757829003601f168201915b5050505050815250509050806020015181604001519250925050915091565b6000818051602081018201805184825260208301602085012081835280955050505050506000915090508060000180546102bc9061088e565b80601f01602080910402602001604051908101604052809291908181526020018280546102e89061088e565b80156103355780601f1061030a57610100808354040283529160200191610335565b820191906000526020600020905b81548152906001019060200180831161031857829003601f168201915b5050505050908060010160009054906101000a900473ffffffffffffffffffffffffffffffffffffffff16908060020180546103709061088e565b80601f016020809104026020016040519081016040528092919081815260200182805461039c9061088e565b80156103e95780601f106103be576101008083540402835291602001916103e9565b820191906000526020600020905b8154815290600101906020018083116103cc57829003601f168201915b5050505050905083565b60405180606001604052808381526020013373ffffffffffffffffffffffffffffffffffffffff168152602001828152506000836040516104349190610848565b908152602001604051809103902060008201518160000190816104579190610a75565b5060208201518160010160006101000a81548173ffffffffffffffffffffffffffffffffffffffff021916908373ffffffffffffffffffffffffffffffffffffffff16021790555060408201518160020190816104b49190610a75565b509050505050565b6000604051905090565b600080fd5b600080fd5b600080fd5b600080fd5b6000601f19601f8301169050919050565b7f4e487b7100000000000000000000000000000000000000000000000000000000600052604160045260246000fd5b610523826104da565b810181811067ffffffffffffffff82111715610542576105416104eb565b5b80604052505050565b60006105556104bc565b9050610561828261051a565b919050565b600067ffffffffffffffff821115610581576105806104eb565b5b61058a826104da565b9050602081019050919050565b82818337600083830152505050565b60006105b96105b484610566565b61054b565b9050828152602081018484840111156105d5576105d46104d5565b5b6105e0848285610597565b509392505050565b600082601f8301126105fd576105fc6104d0565b5b813561060d8482602086016105a6565b91505092915050565b60006020828403121561062c5761062b6104c6565b5b600082013567ffffffffffffffff81111561064a576106496104cb565b5b610656848285016105e8565b91505092915050565b600073ffffffffffffffffffffffffffffffffffffffff82169050919050565b600061068a8261065f565b9050919050565b61069a8161067f565b82525050565b600081519050919050565b600082825260208201905092915050565b60005b838110156106da5780820151818401526020810190506106bf565b60008484015250505050565b60006106f1826106a0565b6106fb81856106ab565b935061070b8185602086016106bc565b610714816104da565b840191505092915050565b60006040820190506107346000830185610691565b818103602083015261074681846106e6565b90509392505050565b6000606082019050818103600083015261076981866106e6565b90506107786020830185610691565b818103604083015261078a81846106e6565b9050949350505050565b600080604083850312156107ab576107aa6104c6565b5b600083013567ffffffffffffffff8111156107c9576107c86104cb565b5b6107d5858286016105e8565b925050602083013567ffffffffffffffff8111156107f6576107f56104cb565b5b610802858286016105e8565b9150509250929050565b600081905092915050565b6000610822826106a0565b61082c818561080c565b935061083c8185602086016106bc565b80840191505092915050565b60006108548284610817565b915081905092915050565b7f4e487b7100000000000000000000000000000000000000000000000000000000600052602260045260246000fd5b600060028204905060018216806108a657607f821691505b6020821081036108b9576108b861085f565b5b50919050565b60008190508160005260206000209050919050565b60006020601f8301049050919050565b600082821b905092915050565b6000600883026109217fffffffffffffffffffffffffffffffffffffffffffffffffffffffffffffffff826108e4565b61092b86836108e4565b95508019841693508086168417925050509392505050565b6000819050919050565b6000819050919050565b600061097261096d61096884610943565b61094d565b610943565b9050919050565b6000819050919050565b61098c83610957565b6109a061099882610979565b8484546108f1565b825550505050565b600090565b6109b56109a8565b6109c0818484610983565b505050565b5b818110156109e4576109d96000826109ad565b6001810190506109c6565b5050565b601f821115610a29576109fa816108bf565b610a03846108d4565b81016020851015610a12578190505b610a26610a1e856108d4565b8301826109c5565b50505b505050565b600082821c905092915050565b6000610a4c60001984600802610a2e565b1980831691505092915050565b6000610a658383610a3b565b9150826002028217905092915050565b610a7e826106a0565b67ffffffffffffffff811115610a9757610a966104eb565b5b610aa1825461088e565b610aac8282856109e8565b600060209050601f831160018114610adf5760008415610acd578287015190505b610ad78582610a59565b865550610b3f565b601f198416610aed866108bf565b60005b82811015610b1557848901518255600182019150602085019450602081019050610af0565b86831015610b325784890151610b2e601f891682610a3b565b8355505b6001600288020188555050505b50505050505056fea2646970667358221220530990f3527ede7e40ce12059bb30a55c13a58d318b233f2c1609747c9330bab64736f6c634300081c0033",
  "linkReferences": {},
  "deployedLinkReferences": {}
}