{
  "_format": "hh-sol-artifact-1",
  "contractName": "SignatureStorage",
  "sourceName": "contracts/ImageStorge.sol",
  "abi": [
    {
      "anonymous": false,
      "inputs": [
        {
          "indexed": false,
          "internalType": "string",
          "name": "hash",
          "type": "string"
        },
        {
          "indexed": false,
          "internalType": "string",
          "name": "signature",
          "type": "string"
        },
        {
          "indexed": false,
          "internalType": "address",
          "name": "userAddress",
          "type": "address"
        },
        {
          "indexed": false,
          "internalType": "uint256",
          "name": "accountIndex",
          "type": "uint256"
        },
        {
          "indexed": false,
          "internalType": "uint256",
          "name": "timestamp",
          "type": "uint256"
        }
      ],
      "name": "SignatureStored",
      "type": "event"
    },
    {
      "inputs": [
        {
          "internalType": "string",
          "name": "hash",
          "type": "string"
        }
      ],
      "name": "getSignature",
      "outputs": [
        {
          "components": [
            {
              "internalType": "string",
              "name": "hash",
              "type": "string"
            },
            {
              "internalType": "string",
              "name": "signature",
              "type": "string"
            },
            {
              "internalType": "address",
              "name": "userAddress",
              "type": "address"
            },
            {
              "internalType": "uint256",
              "name": "accountIndex",
              "type": "uint256"
            },
            {
              "internalType": "uint256",
              "name": "timestamp",
              "type": "uint256"
            }
          ],
          "internalType": "struct SignatureStorage.SignatureInfo",
          "name": "",
          "type": "tuple"
        }
      ],
      "stateMutability": "view",
      "type": "function"
    },
    {
      "inputs": [
        {
          "internalType": "string",
          "name": "",
          "type": "string"
        }
      ],
      "name": "signatures",
      "outputs": [
        {
          "internalType": "string",
          "name": "hash",
          "type": "string"
        },
        {
          "internalType": "string",
          "name": "signature",
          "type": "string"
        },
        {
          "internalType": "address",
          "name": "userAddress",
          "type": "address"
        },
        {
          "internalType": "uint256",
          "name": "accountIndex",
          "type": "uint256"
        },
        {
          "internalType": "uint256",
          "name": "timestamp",
          "type": "uint256"
        }
      ],
      "stateMutability": "view",
      "type": "function"
    },
    {
      "inputs": [
        {
          "internalType": "string",
          "name": "hash",
          "type": "string"
        },
        {
          "internalType": "string",
          "name": "signature",
          "type": "string"
        },
        {
          "internalType": "address",
          "name": "userAddress",
          "type": "address"
        },
        {
          "internalType": "uint256",
          "name": "accountIndex",
          "type": "uint256"
        }
      ],
      "name": "storeSignature",
      "outputs": [],
      "stateMutability": "nonpayable",
      "type": "function"
    }
  ],
  "bytecode": "0x6080604052348015600f57600080fd5b50610db98061001f6000396000f3fe608060405234801561001057600080fd5b50600436106100415760003560e01c8063441f36b5146100465780635e9592871461007a578063b2f88707146100aa575b600080fd5b610060600480360381019061005b91906106d1565b6100c6565b6040516100719594939291906107f3565b60405180910390f35b610094600480360381019061008f91906106d1565b610242565b6040516100a19190610939565b60405180910390f35b6100c460048036038101906100bf91906109b3565b610408565b005b6000818051602081018201805184825260208301602085012081835280955050505050506000915090508060000180546100ff90610a81565b80601f016020809104026020016040519081016040528092919081815260200182805461012b90610a81565b80156101785780601f1061014d57610100808354040283529160200191610178565b820191906000526020600020905b81548152906001019060200180831161015b57829003601f168201915b50505050509080600101805461018d90610a81565b80601f01602080910402602001604051908101604052809291908181526020018280546101b990610a81565b80156102065780601f106101db57610100808354040283529160200191610206565b820191906000526020600020905b8154815290600101906020018083116101e957829003601f168201915b5050505050908060020160009054906101000a900473ffffffffffffffffffffffffffffffffffffffff16908060030154908060040154905085565b61024a610532565b60008260405161025a9190610aee565b90815260200160405180910390206040518060a001604052908160008201805461028390610a81565b80601f01602080910402602001604051908101604052809291908181526020018280546102af90610a81565b80156102fc5780601f106102d1576101008083540402835291602001916102fc565b820191906000526020600020905b8154815290600101906020018083116102df57829003601f168201915b5050505050815260200160018201805461031590610a81565b80601f016020809104026020016040519081016040528092919081815260200182805461034190610a81565b801561038e5780601f106103635761010080835404028352916020019161038e565b820191906000526020600020905b81548152906001019060200180831161037157829003601f168201915b505050505081526020016002820160009054906101000a900473ffffffffffffffffffffffffffffffffffffffff1673ffffffffffffffffffffffffffffffffffffffff1673ffffffffffffffffffffffffffffffffffffffff168152602001600382015481526020016004820154815250509050919050565b6040518060a001604052808581526020018481526020018373ffffffffffffffffffffffffffffffffffffffff168152602001828152602001428152506000856040516104559190610aee565b908152602001604051809103902060008201518160000190816104789190610cb1565b50602082015181600101908161048e9190610cb1565b5060408201518160020160006101000a81548173ffffffffffffffffffffffffffffffffffffffff021916908373ffffffffffffffffffffffffffffffffffffffff16021790555060608201518160030155608082015181600401559050507f560bf27983e8c764ad3826bf378891cf8786e3bd75fc0ead7376e36c8f64df0684848484426040516105249594939291906107f3565b60405180910390a150505050565b6040518060a001604052806060815260200160608152602001600073ffffffffffffffffffffffffffffffffffffffff16815260200160008152602001600081525090565b6000604051905090565b600080fd5b600080fd5b600080fd5b600080fd5b6000601f19601f8301169050919050565b7f4e487b7100000000000000000000000000000000000000000000000000000000600052604160045260246000fd5b6105de82610595565b810181811067ffffffffffffffff821117156105fd576105fc6105a6565b5b80604052505050565b6000610610610577565b905061061c82826105d5565b919050565b600067ffffffffffffffff82111561063c5761063b6105a6565b5b61064582610595565b9050602081019050919050565b82818337600083830152505050565b600061067461066f84610621565b610606565b9050828152602081018484840111156106905761068f610590565b5b61069b848285610652565b509392505050565b600082601f8301126106b8576106b761058b565b5b81356106c8848260208601610661565b91505092915050565b6000602082840312156106e7576106e6610581565b5b600082013567ffffffffffffffff81111561070557610704610586565b5b610711848285016106a3565b91505092915050565b600081519050919050565b600082825260208201905092915050565b60005b83811015610754578082015181840152602081019050610739565b60008484015250505050565b600061076b8261071a565b6107758185610725565b9350610785818560208601610736565b61078e81610595565b840191505092915050565b600073ffffffffffffffffffffffffffffffffffffffff82169050919050565b60006107c482610799565b9050919050565b6107d4816107b9565b82525050565b6000819050919050565b6107ed816107da565b82525050565b600060a082019050818103600083015261080d8188610760565b905081810360208301526108218187610760565b905061083060408301866107cb565b61083d60608301856107e4565b61084a60808301846107e4565b9695505050505050565b600082825260208201905092915050565b60006108708261071a565b61087a8185610854565b935061088a818560208601610736565b61089381610595565b840191505092915050565b6108a7816107b9565b82525050565b6108b6816107da565b82525050565b600060a08301600083015184820360008601526108d98282610865565b915050602083015184820360208601526108f38282610865565b9150506040830151610908604086018261089e565b50606083015161091b60608601826108ad565b50608083015161092e60808601826108ad565b508091505092915050565b6000602082019050818103600083015261095381846108bc565b905092915050565b610964816107b9565b811461096f57600080fd5b50565b6000813590506109818161095b565b92915050565b610990816107da565b811461099b57600080fd5b50565b6000813590506109ad81610987565b92915050565b600080600080608085870312156109cd576109cc610581565b5b600085013567ffffffffffffffff8111156109eb576109ea610586565b5b6109f7878288016106a3565b945050602085013567ffffffffffffffff811115610a1857610a17610586565b5b610a24878288016106a3565b9350506040610a3587828801610972565b9250506060610a468782880161099e565b91505092959194509250565b7f4e487b7100000000000000000000000000000000000000000000000000000000600052602260045260246000fd5b60006002820490506001821680610a9957607f821691505b602082108103610aac57610aab610a52565b5b50919050565b600081905092915050565b6000610ac88261071a565b610ad28185610ab2565b9350610ae2818560208601610736565b80840191505092915050565b6000610afa8284610abd565b915081905092915050565b60008190508160005260206000209050919050565b60006020601f8301049050919050565b600082821b905092915050565b600060088302610b677fffffffffffffffffffffffffffffffffffffffffffffffffffffffffffffffff82610b2a565b610b718683610b2a565b95508019841693508086168417925050509392505050565b6000819050919050565b6000610bae610ba9610ba4846107da565b610b89565b6107da565b9050919050565b6000819050919050565b610bc883610b93565b610bdc610bd482610bb5565b848454610b37565b825550505050565b600090565b610bf1610be4565b610bfc818484610bbf565b505050565b5b81811015610c2057610c15600082610be9565b600181019050610c02565b5050565b601f821115610c6557610c3681610b05565b610c3f84610b1a565b81016020851015610c4e578190505b610c62610c5a85610b1a565b830182610c01565b50505b505050565b600082821c905092915050565b6000610c8860001984600802610c6a565b1980831691505092915050565b6000610ca18383610c77565b9150826002028217905092915050565b610cba8261071a565b67ffffffffffffffff811115610cd357610cd26105a6565b5b610cdd8254610a81565b610ce8828285610c24565b600060209050601f831160018114610d1b5760008415610d09578287015190505b610d138582610c95565b865550610d7b565b601f198416610d2986610b05565b60005b82811015610d5157848901518255600182019150602085019450602081019050610d2c565b86831015610d6e5784890151610d6a601f891682610c77565b8355505b6001600288020188555050505b50505050505056fea2646970667358221220adf59a5ac7990b4ac09a9aa3e2c46b893ee910ac78d1c608f82115e7963f9f0464736f6c634300081c0033",
  "linkReferences": {},
  "deployedLinkReferences": {}
}